:020000040800F2
:10000000280500209D010008C1080008E907000834
:10001000BD080008A10500083F0E00080000000010
:100020000000000000000000000000009D0A000821
:100030000D0700080000000051090008B50B00087A
:10004000B7010008B7010008B7010008B7010008B0
:10005000B7010008B7010008B7010008B7010008A0
:10006000B7010008B7010008B7010008B701000890
:10007000B7010008B7010008B7010008B701000880
:10008000B7010008B7010008B7010008B701000870
:10009000B7010008B7010008B7010008B701000860
:1000A000B7010008B7010008B7010008B701000850
:1000B000B7010008B7010008B7010008B701000840
:1000C000B7010008B7010008B7010008B701000830
:1000D000B7010008210C0008B7010008B7010008AB
:1000E000B7010008B7010008B7010008B701000810
:1000F000B7010008B7010008B7010008B701000800
:10010000B7010008B7010008B7010008B7010008EF
:10011000B7010008B7010008B7010008B7010008DF
:10012000A5050008B7010008B7010008B7010008DD
:10013000B7010008B7010008B7010008B7010008BF
:10014000B7010008B7010008B7010008B7010008AF
:10015000B7010008B7010008B7010008B70100089F
:10016000B7010008B7010008B7010008B70100088F
:10017000B7010008B7010008B7010008B70100087F
:10018000B7010008B7010008DFF80CD000F02EF826
:1001900000480047DD100008280500200648804779
:1001A00006480047FEE7FEE7FEE7FEE7FEE7FEE75C
:1001B000FEE7FEE7FEE7FEE7B90B0008890100084D
:1001C00030B50B46014600202022012409E021FA27
:1001D00002F59D4205D303FA02F5491B04FA02F524
:1001E0002844151EA2F10102F1DC30BD064C074D7A
:1001F00006E0E06840F0010394E8070098471034F7
:10020000AC42F6D3FFF7C4FF3C1500085C150008AC
:1002100021B1826842F00102826003E0826822F02C
:1002200001028260704700000021084A1168084AF4
:100230001140D0E900231A4383681A43C3681A4364
:100240001143044AC2F8041370470000042301401C
:10025000E030FCFF0020014021B1826842F480724E
:10026000826003E0826822F480728260704721B16C
:10027000826842F40072826003E0826822F40072B5
:100280008260704730B50246002000235068104C51
:1002900020400D790C6844EA0524204350609068A2
:1002A0000C4C2040D1E903542C438D682C434D79EC
:1002B00044EA450420439060D06A20F470000C7D2D
:1002C000641EE4B2234340EA0350D06230BD000014
:1002D000FFFEFFFCFDF7FFC0F0B504460D46002011
:1002E0000021092D11DDE068A5F10A0606EB46079D
:1002F000072606FA07F18843A5F10A0606EB46062B
:1003000003FA06F10843E0600CE0206905EB4507BD
:10031000072606FA07F1884305EB450603FA06F1BE
:1003200008432061072A0FDA606B561E06EB86072A
:100330001F2606FA07F18843561E06EB860605FAC5
:1003400006F10843606322E00D2A0FDA206BD61F06
:1003500006EB86071F2606FA07F18843D61F06EB31
:10036000860605FA06F10843206310E0E06AA2F170
:100370000D0606EB86071F2606FA07F18843A2F151
:100380000D0606EB860605FA06F10843E062F0BDAD
:10039000816841F0804181607047000000B59DB0E8
:1003A0000121784800F0D6FA0121080200F0E2FAB3
:1003B000EE201B9003208DF870001BA9724800F0FE
:1003C000A6F903201B908DF870001BA96F4800F060
:1003D0009EF93F201B9003208DF870001BA96C48EC
:1003E00000F095F90121080200F0D4FA00214FF441
:1003F000807000F0CFFA002017901A9019904FF4F7
:100400008030189017A8FFF70FFF002011900120EF
:100410008DF8480000208DF84900139015900E20AB
:100420008DF8580011A95B48FFF72CFF0523012226
:1004300011465848FFF750FF052302221146554840
:10044000FFF74AFF0523032211465248FFF744FFF6
:100450000523042219464F48FFF73EFF05231A469D
:1004600006214C48FFF738FF05230622072149489B
:10047000FFF732FF0523072208214648FFF72CFF2C
:100480000523082209214348FFF726FF05230922F7
:100490000A214048FFF720FF05230A220B213D488F
:1004A000FFF71AFF05230B220C213A48FFF714FF30
:1004B00005230C220D213748FFF70EFF05230D22DF
:1004C0000E213448FFF708FF05230E220F21314883
:1004D000FFF702FF01212F48FFF7C9FE01212D4838
:1004E000FFF7C5FE01212B48FFF7B6FE0121294881
:1004F000FFF78EFE0020029026484C3003902648DD
:100500000490002005900E200690002007904FF4E4
:10051000806008904000099080000A9040110B9084
:1005200040020C9000200D9001200E9000200F90B2
:10053000109002A9194800F0BDF81021174800F0EA
:1005400049F801221021154800F096F838208DF85E
:10055000040000208DF8050002208DF8060001201F
:100560008DF8070001A800F0ADF900BF0B4800F0BE
:1005700056F80028FAD10121084800F045F81DB0CE
:1005800000BD0000070040000000024000040240DF
:10059000000802400020014040000020106402409A
:1005A00000BFFEE710B50849084800F043F80128ED
:1005B00008D100F055FD0449044800F00BF8002074
:1005C0000349087010BD0000208000101064024034
:1005D000040000200246094B9A4201D2084801E07B
:1005E0000648103801F000531BB1064B0B40C360A6
:1005F00002E0044B0B40836070470000106402402F
:10060000006002407D0F7D0F21B1026842F00102BF
:10061000026003E0026822F00102026070470146B6
:1006200000200A6802F001020AB1012000E0002067
:100630007047000030B503460A46002000240B4DE9
:10064000AB4201D20A4901E00849103902F00055D5
:100650000DB14C6800E00C68064D2C4004EA020520
:100660000DB1012000E0002030BD00001064024008
:10067000006002407D0F7D0F10B501F080034BB18B
:1006800022B1436943F08003436103E0436923F0EF
:100690008003436180290BD02AB1036801F01E0456
:1006A0002343036004E0036801F01E04A3430360D6
:1006B00010BD000010B500220268134B1A40CC6830
:1006C0000B6823434C6923438C692343CC69234340
:1006D0000C6A23434C6A23438C6A23434C6B2343A9
:1006E0008C6B23431A430260426922F00702D1E96E
:1006F0000B3423431A4342610B6943604B688360A8
:100700008B68C36010BD00003F801CF07047F0B5DF
:100710000A4600210023002400BF3DE0012505FA20
:1007200001F3156805EA03049C4234D105684F00C3
:100730000326BE40B543056015794E00B5400668F6
:10074000354305601579012D02D01579022D16D19A
:1007500085684F000326BE40B543856055794E003D
:10076000B540866835438560456801268E40B543AF
:100770004560456896798E40B6B235434560C56898
:100780004F000326BE40B543C560D5794E00B54045
:10079000C6683543C560491C1029BFD3F0BDF0B50C
:1007A000002300244D07ED0E02FA05F3CE1000F1F0
:1007B000200555F826504E07F70E0F26BE40B543CC
:1007C000CF1000F1200646F82750CE1000F120058A
:1007D00055F8265045EA0304CE1000F1200545F8EF
:1007E0002640F0BD4183704700BFFEE710B50F28DB
:1007F00007DD831FDAB2134C04EB8203C3F88012C7
:100800001EE0092806D00A2807D00E2809D00F2894
:100810000FD10AE00C4B196011E00B4B1B1D196046
:100820000DE0094B0C33196009E0074B10331960D8
:1008300005E0064C04EB8003C3F8801200BF00BF44
:1008400010BD000000004242880242420080424245
:100850001CB50121302000F07DF84FF4C0600090FD
:1008600001208DF8040000208DF8060003208DF88B
:10087000050001208DF8070069460E48FFF747FF85
:1008800043F6FF10009069460A48FFF740FF43F621
:10089000FF110848FFF7A6FF4FF66C40009069462D
:1008A0000548FFF734FF4FF66C410348FFF79AFF06
:1008B0001CBD0000001402400010024000BFFEE713
:1008C0007047000070B5002100230F22C4781CB3CC
:1008D000174C246804F4E064C4F5E064C4F3072111
:1008E000C1F10404E3B20A4144789C40E1B2847847
:1008F000144021430C07210E0E4C057861550478F5
:1009000004F01F050124AC4005786D11AD0005F120
:10091000E025C5F8004109E0047804F01F05012432
:10092000AC40054D0678761145F8264070BD0000B4
:100930000CED00E000E400E080E100E0024901434A
:10094000024A1160704700000000FA050CED00E05B
:100950007047000029B1064A12680243044B1A602E
:1009600004E0034A12688243014B1A60704700009A
:100970003038024029B1064A12680243044B1A601B
:1009800004E0034A12688243014B1A60704700007A
:100990004438024029B1064A12680243044B1A60E7
:1009A00004E0034A12688243014B1A60704700005A
:1009B00024380240F0B50021002200240225002640
:1009C0000223324F3F6807F00C0121B1042905D002
:1009D000082937D105E02E4F076036E02D4F07601C
:1009E00033E02A4F3F1F3F68C7F38056274F3F1F12
:1009F0003F6807F03F036EB1264FB7FBF3F7DFF810
:100A00008CC0ACF1040CDCF800C0CCF3881C07FBF4
:100A10000CF40CE01E4FB7FBF3F7DFF870C0ACF13D
:100A2000040CDCF800C0CCF3881C07FB0CF4174F57
:100A30003F1F3F68C7F301477F1C7D00B4FBF5F7FC
:100A4000076002E0124F076000BF00BF0F4F3F6812
:100A500007F0F0010909104F7A5C0768D74047603A
:100A60000A4F3F6807F4E051890A0B4F7A5C4768E8
:100A7000D7408760054F3F6807F46041490B064F38
:100A80007A5C4768D740C760F0BD00000838024074
:100A90000024F40000127A001200002070470000C9
:100AA0000CB50020019000903448006840F480307C
:100AB0003249086000BF3148006800F400300090FF
:100AC0000198401C0190009818B90198B0F5A04F0A
:100AD000F1D12A48006800F4003010B101200090E4
:100AE00001E0002000900098012846D123484030C2
:100AF000006840F08050214940310860204800687B
:100B000040F440401E4908601C48083000681B49FA
:100B1000083108600846006840F400400860084654
:100B2000006840F4A05008601648091F0860081FBC
:100B3000006840F08070091F086000BF0F4800681F
:100B400000F000700028F9D040F205700E490860EE
:100B50000A480830006820F003000849083108609E
:100B60000846006840F00200086000BF03480830F3
:100B7000006800F00C000828F8D10CBD00380240D5
:100B80000070004008544007003C0240042808D18F
:100B90004FF0E021096941F004014FF0E0221161BA
:100BA00007E04FF0E021096921F004014FF0E02255
:100BB000116170477047000010B51548006840F497
:100BC0007000134908601348006840F001001149A3
:100BD000086000200F49083108600E4800680E497F
:100BE00008400C4908600D48091D0860081F00688E
:100BF00020F48020091F0860002006490C3108609D
:100C0000FFF74EFF4FF0006001498039086010BDCA
:100C100088ED00E000380240FFFFF6FE10300024AF
:100C200010B540F225511D4800F04AF810B31B489A
:100C300000F000F9C4B21A48008800F40040C8B9B6
:100C40001748008800F4804060B10A2C03D00020CF
:100C50001349088020E01248008840F40040104901
:100C6000088019E00D2C06D10D48008840F4804022
:100C70000B49088010E00A480088C0F30D000949BC
:100C80000C5407480088401C054908800846008825
:100C9000C72801DD0020088010BD000000100140C1
:100CA000100000205C00002021B1828942F4005233
:100CB000828104E082894DF6FF731A408281704779
:100CC00070B50246002400230025002040F66A1675
:100CD000B14200D100BFC1F3421501F01F0301264C
:100CE00006FA03F3012D02D19689334006E0022D66
:100CF00002D1168A334001E0968A33400C12012655
:100D000006FA04F41688344013B10CB1012000E057
:100D1000002070BDF0B50346002400260025002009
:100D200040F66A17B94200D100BF1846C1F3421419
:100D300001F01F06012707FA06F5012C01D10C303E
:100D400004E0022C01D1103000E014301AB1076821
:100D50002F43076002E00768AF430760F0BD000063
:100D60002DE9FF4705460E460024A14600BFA046D8
:100D7000B08900B100BF2C8A24F44054F0880443A9
:100D80002C82AC8941F20C608443B08831890843DD
:100D9000718908430443AC81AC8A24F44074B0895F
:100DA0000443AC826846FFF705FE2048854202D026
:100DB0001F48854202D1DDF80C9001E0DDF8089073
:100DC000A88900F4004040B109EBC90000EB09100C
:100DD00031684900B0FBF1F707E009EBC90000EB0F
:100DE000091031688900B0FBF1F76420B7FBF0F01F
:100DF00004012009642101FB1078A88900F4004057
:100E000040B1322000EBC800B0FBF1F000F0070069
:100E1000044308E0322000EB08106421B0FBF1F03D
:100E200000F00F0004432C81BDE8FF870010014053
:100E30000014014001468888C0F30800704700BFD5
:100E4000FEE700000FB4054B10B503A9044A029851
:100E500000F018F810BC5DF814FB0000C110000889
:100E60000C00002002E008C8121F08C1002AFAD1B5
:100E700070477047002001E001C1121F002AFBD11A
:100E8000704700002DE9FF4F89B09B4604460025BE
:100E900006E025280BD05A460B999047641C6D1C20
:100EA00020780028F5D10DB02846BDE8F08F002746
:100EB000B8460122474900E0074314F8013F203BB0
:100EC00002FA03F00842F7D120782E2819D114F83D
:100ED000010F47F004072A280ED06FF02F02207868
:100EE000A0F1300109290CD808EB880102EB41017F
:100EF00000EB0108641CF2E70A98641C50F8048BAC
:100F00000A9020780028CED0642808D0692806D01E
:100F100075281ED05A460B9990476D1C58E00A99C7
:100F20004FF00A0901C90A91002802DA40422D2136
:100F300002E0390504D52B218DF82010012103E0B2
:100F4000F90704D02021F7E78A4608AE0DE000211A
:100F5000FAE70A994FF00A0901C90A91F7E74946E9
:100F6000FFF72EF9303106F8011D0028F7D1ADEB5F
:100F7000060000F12009780701D44FF00108C845A8
:100F800002DDA8EB090000E000208046002706E013
:100F900008A85A46C05D0B9990476D1C7F1C5745A9
:100FA000F6DB04E030205A460B9990476D1CB8F1EF
:100FB0000001A8F10108F5DC05E016F8010B5A461E
:100FC0000B9990476D1CB9F10001A9F10109F4DCFE
:100FD000641C65E70928010010B504466FF00400A1
:100FE000FFF7D4FDE11704EB5171C1F3C701074AC4
:100FF00011701046007800EB4001C1EBC0104FF6B5
:10100000FF7101EAC0000249088010BD06000020FF
:10101000080000200146114A12784A434FF0E023AD
:101020005A6100229A611A46126942F001021A615D
:1010300000BF4FF0E022106900F001021AB100F485
:101040008032002AF5D04FF0E022126922F001022E
:101050004FF0E0231A6100229A61704706000020D9
:1010600030B5002200230020002121E014E0C1EB74
:10107000C104114D05EB840434F81040002C09DB49
:10108000C1EBC10405EB840434F810401444A2B24F
:101090005C1CE3B24C1CE1B20129E8DB92FBF3F4E7
:1010A000064D25F81040002200230021441CE0B228
:1010B0000E28DBDB30BD00004000002024000020B3
:1010C00000BF054A128802F04002002AF9D0C2B2DD
:1010D000014B9A807047000000100140ADF5876D0C
:1010E0000020CDF8340400BFA820FFF775FF4FF4AF
:1010F000A060FFF723FCFFF7ABFBFFF74FF94FF4BE
:10110000E13000F0C5F9002727E001213846FFF75C
:101110006DFB3220FFF77EFFD648FFF739F900BF9D
:10112000D54800780028FBD10120D349087000245D
:101130000BE0D24830F81400C7EBC70104EB4101C3
:101140009BAA22F81100601CC4B20E2CF1DB002116
:101150003846FFF74BFB781CC7B2082FD5DB4FF0A2
:1011600008092BE001214846FFF740FB3220FFF73A
:1011700051FFC048FFF70CF900BFBF4800780028B6
:10118000FBD10120BC49087000240DE0BB4830F8B9
:101190001410A9F10800C0EBC00004EB400001AA44
:1011A00022F81010601CC4B20E2CEFDB0021484660
:1011B000FFF71CFB09F1010000F0FF09B9F1160F60
:1011C000D0DB55E10025002738E001213846FFF744
:1011D0000DFB3220FFF71EFFA648FFF7D9F8CDF828
:1011E0003474DDF83474052F06DDDDF8340400EBCB
:1011F0004000C0B2CDF8340400BF9F4800780028FA
:10120000FBD101209C49087000240FE09B4830F876
:1012100014004FF6FF7101EA4000C7EBC70104EB71
:101220004101D3AA22F81100601CC4B20E2CEDDBE0
:1012300000213846FFF7DAFA781CC7B2082FC4DB62
:101240004FF008092FE001214846FFF7CFFA32207E
:10125000FFF7E0FE8748FFF79BF800BF864800785D
:101260000028FBD1012084490870002411E0834844
:1012700030F814004FF6FF7101EA4001A9F10800AF
:10128000C0EBC00004EB400039AA22F81010601C2B
:10129000C4B20E2CEBDB00214846FFF7A7FA09F198
:1012A000010000F0FF09B9F1160FCCDBBDF84CB31B
:1012B0000026BDF8E4A0B046002413E0D3A830F81F
:1012C0001400584503DDD3A830F814B0264639A8D9
:1012D00030F81400504503DD39A830F814A0A046BA
:1012E000601CC4B2702CE9DB70240AE039A830F825
:1012F0001400504503DD39A830F814A0A046601C46
:10130000C4B2C42CF2DBB8F1380F02DBB8F18C0F99
:101310004CDD382E15DDBBF5FA7F07DDBDF8320454
:10132000ADF82E04ADF8326445F00105BAF5FA7F48
:1013300007DDBDF83004ADF82C04ADF8308445F07D
:1013400002051C2E01DB012000E00020382815DCFE
:10135000BBF5FA7F07DDBDF83204ADF82E04ADF819
:10136000326445F00105BAF5FA7F07DDBDF83004B7
:10137000ADF82C04ADF8308445F002051C2E15DACA
:10138000BBF5C87F07DDBDF83204ADF82E04ADF81B
:10139000326445F00105BAF5C87F07DDBDF83004B9
:1013A000ADF82C04ADF8308445F00205B8F1380FE3
:1013B00001DB012000E000208C284CDC382E15DDFC
:1013C000BBF5C87F07DDBDF83204ADF82E04ADF8DB
:1013D000326445F00105BAF5C87F07DDBDF8300479
:1013E000ADF82C04ADF8308445F002051C2E01DB6D
:1013F000012000E00020382815DCBBF5C87F07DDA0
:10140000BDF83204ADF82E04ADF8326445F00105A4
:10141000BAF5967F07DDBDF83004ADF82C04ADF8C1
:10142000308445F002051C2E15DABBF5967F07DDEA
:10143000BDF83204ADF82E04ADF8326445F0010574
:10144000BAF5967F07DDBDF83004ADF82C04ADF891
:10145000308445F00205032D0AD10025BDF8301473
:1014600007A0FFF7EFFCBDF8321407A0FFF7EAFC76
:10147000A8E6000000200140040000202400002015
:101480005825640D0A0000005925640D0A0000006B
:1014900010B588B0044601210846FFF75BFA012128
:1014A0001020FFF767FA072209212248FFF777F992
:1014B00007220A211F48FFF772F94FF4C060069017
:1014C00002208DF81C008DF81D0000208DF81E00F4
:1014D00001208DF81F0006A91648FFF718F902949D
:1014E0000020ADF80C00ADF80E00ADF81000ADF81E
:1014F00014000C20ADF8120002A90F48FFF730FCD1
:1015000001210D48FFF7D0FB012240F225510A4886
:10151000FFF700FC25208DF8040003208DF805005E
:101520008DF8060001208DF8070001A8FFF7CAF921
:1015300008B010BD00000240001001405C1500081A
:101540000000002024000000640E00088015000840
:101550002400002004050000740E000800000000B4
:10156000010000000000000000000000000000007A
:101570000000010203040102030406070809000039
:040000050800018965
:00000001FF
